{
  "_format": "hh-sol-artifact-1",
  "contractName": "chai",
  "sourceName": "contracts/chai.sol",
  "abi": [
    {
      "inputs": [],
      "stateMutability": "nonpayable",
      "type": "constructor"
    },
    {
      "inputs": [
        {
          "internalType": "string",
          "name": "name",
          "type": "string"
        },
        {
          "internalType": "string",
          "name": "mssg",
          "type": "string"
        }
      ],
      "name": "buyChai",
      "outputs": [],
      "stateMutability": "payable",
      "type": "function"
    },
    {
      "inputs": [],
      "name": "getMemos",
      "outputs": [
        {
          "components": [
            {
              "internalType": "string",
              "name": "name",
              "type": "string"
            },
            {
              "internalType": "string",
              "name": "mssg",
              "type": "string"
            },
            {
              "internalType": "uint256",
              "name": "timestamp",
              "type": "uint256"
            },
            {
              "internalType": "address",
              "name": "from",
              "type": "address"
            }
          ],
          "internalType": "struct chai.Memo[]",
          "name": "",
          "type": "tuple[]"
        }
      ],
      "stateMutability": "view",
      "type": "function"
    },
    {
      "inputs": [],
      "name": "owner",
      "outputs": [
        {
          "internalType": "address payable",
          "name": "",
          "type": "address"
        }
      ],
      "stateMutability": "view",
      "type": "function"
    }
  ],
  "bytecode": "0x608060405234801561001057600080fd5b50336000806101000a81548173ffffffffffffffffffffffffffffffffffffffff021916908373ffffffffffffffffffffffffffffffffffffffff160217905550610c07806100606000396000f3fe6080604052600436106100345760003560e01c80636a13d85914610039578063865c5172146100555780638da5cb5b14610080575b600080fd5b610053600480360381019061004e919061059b565b6100ab565b005b34801561006157600080fd5b5061006a61023a565b6040516100779190610818565b60405180910390f35b34801561008c57600080fd5b5061009561041d565b6040516100a2919061085b565b60405180910390f35b600034116100ee576040517f08c379a00000000000000000000000000000000000000000000000000000000081526004016100e5906108d3565b60405180910390fd5b60008054906101000a900473ffffffffffffffffffffffffffffffffffffffff1673ffffffffffffffffffffffffffffffffffffffff166108fc349081150290604051600060405180830381858888f19350505050158015610154573d6000803e3d6000fd5b50600160405180608001604052808481526020018381526020014281526020013373ffffffffffffffffffffffffffffffffffffffff16815250908060018154018082558091505060019003906000526020600020906004020160009091909190915060008201518160000190816101cc9190610aff565b5060208201518160010190816101e29190610aff565b506040820151816002015560608201518160030160006101000a81548173ffffffffffffffffffffffffffffffffffffffff021916908373ffffffffffffffffffffffffffffffffffffffff16021790555050505050565b60606001805480602002602001604051908101604052809291908181526020016000905b82821015610414578382906000526020600020906004020160405180608001604052908160008201805461029190610922565b80601f01602080910402602001604051908101604052809291908181526020018280546102bd90610922565b801561030a5780601f106102df5761010080835404028352916020019161030a565b820191906000526020600020905b8154815290600101906020018083116102ed57829003601f168201915b5050505050815260200160018201805461032390610922565b80601f016020809104026020016040519081016040528092919081815260200182805461034f90610922565b801561039c5780601f106103715761010080835404028352916020019161039c565b820191906000526020600020905b81548152906001019060200180831161037f57829003601f168201915b50505050508152602001600282015481526020016003820160009054906101000a900473ffffffffffffffffffffffffffffffffffffffff1673ffffffffffffffffffffffffffffffffffffffff1673ffffffffffffffffffffffffffffffffffffffff16815250508152602001906001019061025e565b50505050905090565b60008054906101000a900473ffffffffffffffffffffffffffffffffffffffff1681565b6000604051905090565b600080fd5b600080fd5b600080fd5b600080fd5b6000601f19601f8301169050919050565b7f4e487b7100000000000000000000000000000000000000000000000000000000600052604160045260246000fd5b6104a88261045f565b810181811067ffffffffffffffff821117156104c7576104c6610470565b5b80604052505050565b60006104da610441565b90506104e6828261049f565b919050565b600067ffffffffffffffff82111561050657610505610470565b5b61050f8261045f565b9050602081019050919050565b82818337600083830152505050565b600061053e610539846104eb565b6104d0565b90508281526020810184848401111561055a5761055961045a565b5b61056584828561051c565b509392505050565b600082601f83011261058257610581610455565b5b813561059284826020860161052b565b91505092915050565b600080604083850312156105b2576105b161044b565b5b600083013567ffffffffffffffff8111156105d0576105cf610450565b5b6105dc8582860161056d565b925050602083013567ffffffffffffffff8111156105fd576105fc610450565b5b6106098582860161056d565b9150509250929050565b600081519050919050565b600082825260208201905092915050565b6000819050602082019050919050565b600081519050919050565b600082825260208201905092915050565b60005b8381101561067957808201518184015260208101905061065e565b60008484015250505050565b60006106908261063f565b61069a818561064a565b93506106aa81856020860161065b565b6106b38161045f565b840191505092915050565b6000819050919050565b6106d1816106be565b82525050565b600073ffffffffffffffffffffffffffffffffffffffff82169050919050565b6000610702826106d7565b9050919050565b610712816106f7565b82525050565b600060808301600083015184820360008601526107358282610685565b9150506020830151848203602086015261074f8282610685565b915050604083015161076460408601826106c8565b5060608301516107776060860182610709565b508091505092915050565b600061078e8383610718565b905092915050565b6000602082019050919050565b60006107ae82610613565b6107b8818561061e565b9350836020820285016107ca8561062f565b8060005b8581101561080657848403895281516107e78582610782565b94506107f283610796565b925060208a019950506001810190506107ce565b50829750879550505050505092915050565b6000602082019050818103600083015261083281846107a3565b905092915050565b6000610845826106d7565b9050919050565b6108558161083a565b82525050565b6000602082019050610870600083018461084c565b92915050565b600082825260208201905092915050565b7f506c65617365207061792067726561746572207468616e203020657468657200600082015250565b60006108bd601f83610876565b91506108c882610887565b602082019050919050565b600060208201905081810360008301526108ec816108b0565b9050919050565b7f4e487b7100000000000000000000000000000000000000000000000000000000600052602260045260246000fd5b6000600282049050600182168061093a57607f821691505b60208210810361094d5761094c6108f3565b5b50919050565b60008190508160005260206000209050919050565b60006020601f8301049050919050565b600082821b905092915050565b6000600883026109b57fffffffffffffffffffffffffffffffffffffffffffffffffffffffffffffffff82610978565b6109bf8683610978565b95508019841693508086168417925050509392505050565b6000819050919050565b60006109fc6109f76109f2846106be565b6109d7565b6106be565b9050919050565b6000819050919050565b610a16836109e1565b610a2a610a2282610a03565b848454610985565b825550505050565b600090565b610a3f610a32565b610a4a818484610a0d565b505050565b5b81811015610a6e57610a63600082610a37565b600181019050610a50565b5050565b601f821115610ab357610a8481610953565b610a8d84610968565b81016020851015610a9c578190505b610ab0610aa885610968565b830182610a4f565b50505b505050565b600082821c905092915050565b6000610ad660001984600802610ab8565b1980831691505092915050565b6000610aef8383610ac5565b9150826002028217905092915050565b610b088261063f565b67ffffffffffffffff811115610b2157610b20610470565b5b610b2b8254610922565b610b36828285610a72565b600060209050601f831160018114610b695760008415610b57578287015190505b610b618582610ae3565b865550610bc9565b601f198416610b7786610953565b60005b82811015610b9f57848901518255600182019150602085019450602081019050610b7a565b86831015610bbc5784890151610bb8601f891682610ac5565b8355505b6001600288020188555050505b50505050505056fea264697066735822122045b3e3d70d0cfd78ff76c8eef814428fb4de7f31e1d43647cbcb244ffde77dbe64736f6c63430008110033",
  "linkReferences": {},
  "deployedLinkReferences": {}
}